:02000000B9291C
:10000800FF00030E8301C1000A08C0008A017008BE
:10001800A1007108A0000408A2008B131721700822
:10002800013A031DD7280A217008BB003D08BC000F
:100038003E08BD003F08BE007008BF003D08270607
:10004800031DD7283C088316A00083123D08831699
:10005800A10002308312B7002021BA013F083206FE
:10006800031DD7283E083306031DD7283C080F3A3E
:10007800031D4028071087143C08063A031D47282B
:100088000714871005163C08053A031DD728640095
:10009800FF30BA0085125421B801B9010130B1000E
:1000A800C40166217008A3007108A4007008B8078D
:1000B80071080318013EB9073108033A0319662885
:1000C800B10A54280330F400F5013808F000390863
:1000D800F10092217008A3007108A4002408A5006B
:1000E8002308AF0007197A28B0017C280130B00036
:1000F80087198028AE0182280130AE005E30B70033
:100108008316A001831227088316A10083122508ED
:100118008316A20083122F088316A300A401A50149
:10012800831230088316A60083122E088316A700B0
:100138003130A8003030A9003030AA003A30AB0086
:10014800831226088316FC00831228088316FD00F4
:1001580064002021871007168716B1013703C300F2
:1001680031084302031CC4283108A03E840000085B
:10017800C400AF21310843060319C428B10AB228C4
:100188003308C400AF213208C400AF21640007302F
:10019800FC007D30FD00FD0BCF28FC0BCF2807129B
:1001A8008712851687148B172108F0002008F100A4
:1001B8002208840040088A00410E8300FF0E7F0E4B
:0201C80009002C
:0E01CA00073083120313FD00FD0BE928080027
:1001D80083120313420803178D0083168C130C1423
:0C01E80083120C08F1007108F000080000
:1001F400831603139816903083129800831687177A
:10020400071383128C1E09291A08F0000329080019
:10021400831203131A08F200981C122918121816D4
:0A0224007208F1007108F0000800F4
:10022E000030831203138C1A0130F1007108F000B4
:02023E000800B6
:10024000FF3083120313B500FF30B600B10137034E
:10025000F20031087202031C4F293108A03E8400CD
:100260000008B5060030B6060130B400351C402940
:10027000B60CB50CB6130130B506A030B60643294E
:10028000B60CB50CB6133408083A03194929B40A58
:1002900036293108720603194F29B10A2729360871
:0802A000B2003508B3000800AC
:1002A800FF3083120313AB00FF30AC00FF30AD000A
:1002B800FF309F01C0309F0483161F179F178312BA
:0402C8001F140800F7
:1002CC00831203139F01C0309F0483161F179F17BF
:1002DC0083124408F000F00D7010F00D7010F00D4A
:1002EC00701070089F041F14E5201F151F1D802916
:1002FC0000007C291F101E08F100F00183161E0857
:10030C0083127004C5007108C6000030C60445088D
:08031C00F0004608F1000800A2
:1003240083120313F801F9011030FC00710DF80D6C
:10033400F90D7408F8027508031C750FF902031807
:10034400AA297408F80775080318750FF90703102C
:0A035400F00DF10DFC0B98290800D4
:10035E00831603139818B5290000AF298312440899
:04036E0099000800EA
:100372000F308316031385000D309F0086018C30E9
:1003820087007F30810002308312A6000530A8006A
:10039200C201EC207008A700B1013108A03E840020
:1003A2002030800031085F3A0319D929B10ACE29D9
:1003B20003130712871205168516071487141930BE
:1003C200831699001815FA2083168C160C120B1737
:0A03D2008B1764000000EB29ED29F1
:02400E004A2F37
:00000001FF
